:020000040800F2
:10000000180800208901000843140008971200080E
:10001000411400088F020008191A000800000000AF
:10002000000000000000000000000000F5150008BE
:10003000910200080000000085150008B5160008B0
:10004000A3010008A3010008A3010008A301000800
:10005000A3010008A3010008A3010008A3010008F0
:10006000A3010008A3010008A3010008A3010008E0
:10007000A3010008A3010008A3010008A3010008D0
:10008000A3010008A3010008A3010008A3010008C0
:10009000A3010008A3010008A3010008A3010008B0
:1000A000A3010008A3010008A3010008A3010008A0
:1000B000A3010008A3010008A3010008A301000890
:1000C000A3010008A3010008A3010008A301000880
:1000D000A3010008011A0008A30100080D1A000876
:1000E000A3010008A3010008A301000800F002F822
:1000F00000F03AF80AA090E8000C82448344AAF188
:100100000107DA4501D100F02FF8AFF2090EBAE885
:100110000F0013F0010F18BFFB1A43F0010318473B
:100120004C2000006C200000103A24BF78C878C131
:10013000FAD8520724BF30C830C144BF04680C60ED
:10014000704700000023002400250026103A28BF35
:1001500078C1FBD8520728BF30C148BF0B60704739
:100160001FB51FBD10B510BD00F058F81146FFF7C0
:10017000F7FF01F06FFC00F076F803B4FFF7F2FF31
:1001800003BC00F07DF8000009488047094800479B
:10019000FEE7FEE7FEE7FEE7FEE7FEE7FEE7FEE737
:1001A000FEE7FEE704480549054A064B7047000094
:1001B00017170008ED00000818020020180800209A
:1001C00018040020180400204FF0000200B5134668
:1001D00094469646203922BFA0E80C50A0E80C5067
:1001E000B1F12001BFF4F7AF090728BFA0E80C5018
:1001F00048BF0CC05DF804EB890028BF40F8042B11
:1002000008BF704748BF20F8022B11F0804F18BF7D
:1002100000F8012B7047704770477047754600F033
:100220002BF8AE4605006946534620F00700854688
:1002300018B020B5FFF7B6FFBDE820404FF000062C
:100240004FF000074FF000084FF0000B21F00701BE
:10025000AC46ACE8C009ACE8C009ACE8C009ACE801
:10026000C0098D46704710B50446AFF300802046A4
:10027000BDE81040FFF781BF00487047B80100207B
:1002800001491820ABBEFEE7260002007047FEE7DA
:10029000704772B6FEE710B590F8211000220229CF
:1002A00005D00421816380F82020012010BD016861
:1002B0000B6823F00E030B6001680B6823F0010349
:1002C0000B6090F84030C46B012101FA03F36360C6
:1002D00080F8211080F82020104610BD10B590F84D
:1002E00021100024022903D00421816301243DE070
:1002F00001680A6822F00E020A6001680A6822F0AA
:1003000001020A601A4A0168914201D1012121E0EB
:10031000174A1432914201D110211BE0144A2832AD
:10032000914201D1891515E0114A3C32914201D127
:1003300089140FE00E4A5032914202D14FF48031BD
:1003400008E00B4A6432914202D14FF4801101E07F
:100350004FF08071064A083A5160012180F821105F
:10036000002180F82010416B01B18847204610BD64
:10037000080002402DE9F84FDFF8B8910024A9F1F8
:10038000040B23460F2709F1040AABF1040EC9E060
:100390000125A5402A40AA427DD1674ED1F804C06C
:1003A000ACEB0608B44532D014DCBCF1030F3AD0F4
:1003B00009DCBCF1000F2AD0BCF1010F1CD0BCF14C
:1003C000020F31D11DE0BCF1110F17D0BCF1120F9B
:1003D0002AD119E0B8F5881F19D006DCB8F5803F9E
:1003E00015D0B8F5801F1FD111E0B8F5001F0ED051
:1003F000B8F5041F18D10AE0CB6815E0CB681B1DC7
:1004000012E0CB6808330FE0CB680C330CE08B684C
:100410002BB1012B4FF0080303D0456104E0042306
:1004200002E0056100E00023FF2A01D8064601E052
:1004300000F104064FEA840501D9A5F12005D6F89C
:10044000008007FA05FC28EA0C0803FA05F548EADB
:100450000508C6F800804D68ED0062D5374DAE69DD
:1004600046F00106AE61AD6924F0030605F0010512
:100470000095334D06EB050CDCF80850A607360F47
:1004800007FA06F825EA0805DFF8B880404503D1E9
:100490004FF0000817E044E0DFF8AC80404502D19F
:1004A0004FF001080FE0DFF8A480404502D14FF083
:1004B000020808E0DFF89880404502D14FF00308B9
:1004C00001E04FF0040808FA06F848EA0508CCF8FD
:1004D00008804D68D9F80060ED024D4601D51643FD
:1004E00000E096432E604D68DAF80060AD02554694
:1004F00001D5164300E096432E604D68DBF800609E
:10050000AD035D4601D5164300E096432E604D686D
:10051000DEF80060ED03754601D5164300E0964312
:100520002E60641C0D682A46E5407FF431AFBDE8BB
:10053000F88F000008040140000011100010024074
:100540000000014000080140000C01400010014083
:1005500000140140C26821EA02030A4043EA024152
:10056000016170470AB1016170470904FBE70000AF
:10057000014880687047000004000020024881683C
:10058000027811448160704704000020074810B5CC
:10059000016841F010010160032000F075F80F20A0
:1005A00000F006F800F024F8002010BD0020024002
:1005B00070B50D4D04464FF47A712878B1FBF0F018
:1005C0000A490968B1FBF0F000F0DCFA48B9102CD8
:1005D00007D200222146501E00F036F800206C6041
:1005E00070BD012070BD000004000020100000203C
:1005F0000C4808B5816941F001018161816901F010
:1006000001010091C16941F08051C161C06900F0F0
:10061000805000900448416821F0E06141F0007191
:10062000416008BD0010024000000140002809DBC5
:1006300000F01F02012191404009800000F1E020FC
:10064000C0F8001170470000F0B40E4B1B680C4658
:10065000C3F30223C3F10705042D00D90425191D96
:10066000072901D2002300E0DB1E012606FA05F16E
:10067000491E214099409E40761E16403143F0BCF1
:1006800001F0CBB90CED00E0064900F00702086864
:100690004FF6FF03184040EA0220034A1043086067
:1006A000704700000CED00E00000FA052DE9F0476E
:1006B0000F46050061D0434E306800F00700B84295
:1006C00009D2306820F0070038433060306800F00D
:1006D0000700B84251D128683B4C810712D540072A
:1006E00003D5606840F4E06060602878000703D5B7
:1006F000606840F4605060606068A96820F0F000B5
:10070000084360602878C00728D06868012810D0A6
:100710002168022810D0890700292EDA616821F0AB
:10072000030101436160FFF723FF804641F28839EE
:100730000DE021688903EFE78901EDE7FFF718FF76
:10074000A0EB0801494502D90320BDE8F0876068A5
:10075000696800F00C00B0EB810FEFD1306800F059
:100760000700B8420BD9306820F0070038433060EA
:10077000306800F00700B84201D00120E5E7287892
:10078000400705D56068E96820F4E06008436060D0
:100790002878000706D56068296920F4605040EA8F
:1007A000C100606000F038F86168084AC1F30311C5
:1007B000515CC8400649086006480068FFF7F8FE2B
:1007C0000020C2E700200240001002405221000831
:1007D000100000200800002004480549006849680E
:1007E000044AC1F30221515CC84070471000002048
:1007F0000010024062210008044805490068496869
:10080000044AC1F3C221515CC84070471000002067
:1008100000100240622100080E4A51680E4801F0A3
:100820000C03042B11D0082B0FD10C48C1F38343C8
:10083000C903C05C0AD55168084AC1F34041921E01
:10084000515C054A5043B0FBF1F0704704494843FE
:10085000704700000010024000127A004221000898
:1008600000093D002DE9F84F040070D02078C04DFC
:10087000C00749D06868C0F38100012807D06868C4
:10088000C0F38100022809D16868C00306D5286832
:10089000800339D560680028E7D035E06068B0F59E
:1008A000803F0BD010B1B0F5A02F11D0286820F4F4
:1008B00080302860286820F4802002E0286840F416
:1008C00080302860606890B1FFF752FE06460AE06B
:1008D000286840F480202860F0E700BFFFF748FE5A
:1008E000801B642873D828688003F7D50CE0FFF7D5
:1008F0003FFE064605E000BFFFF73AFE801B642876
:10090000F0D828688003F7D420789A4E80074FF0FB
:1009100001094FF0000839D5686810F00C0F07D0B6
:100920006868C0F38100022809D16868C00306D452
:100930002868800714D52069012808D110E02069B3
:10094000B0B1C6F80090FFF713FE074605E00AE1D4
:10095000FFF70EFEC01B0228C4D828688007F7D511
:100960002868616920F0F80040EAC10028600DE0C5
:10097000C6F80080FFF7FCFD074604E0FFF7F8FD2E
:10098000C01B022823D828688007F7D420780007E6
:100990002CD57948A169D9B1C0F80090FFF7E8FDDE
:1009A000074604E0FFF7E4FDC01B02280FD8686A81
:1009B0008007F7D571484FF4FA510068B0FBF1F0A9
:1009C000009000BF0098411E0091FAD20EE080E036
:1009D000C0F80080FFF7CCFD074604E0FFF7C8FD34
:1009E000C01B022875D8686A8007F7D420784007B2
:1009F00060D5E8690027C00008D4E86940F080505D
:100A0000E861E869012700F0805000905C480168C7
:100A1000C90513D40168834641F480710160FFF772
:100A2000A7FD824606E000BFFFF7A2FDA0EB0A008B
:100A300064284ED8DBF80000C005F5D5E068012831
:100A40000AD008B1052813D0286A20F001002862D6
:100A5000286A20F0040002E0286A40F001002862C1
:100A6000E06841F2883B98B1FFF782FD82460BE0D7
:100A7000286A40F004002862EEE700BFFFF778FD27
:100A8000A0EB0A0159455AD8286A8007F6D50CE030
:100A9000FFF76EFD824605E0FFF76AFDA0EB0A0155
:100AA00059454CD8286A8007F6D41FB1E86920F070
:100AB0008050E861E06988B36968C1F38101022967
:100AC00044D00228C6F8608004D0FFF751FD0446E8
:100AD00038E034E0FFF74CFD074604E0FFF748FD3F
:100AE000C01B02282BD828688001F7D4206AB0F5F3
:100AF000803F05D16868A16820F400300843686031
:100B0000D4E908010843696821F474110843686056
:100B1000C6F86090FFF72CFD044606E025E000BF14
:100B2000FFF726FD001B022809D828688001F7D5A9
:100B30001BE000BFFFF71CFD001B022802D90320A9
:100B4000BDE8F88F28688001F4D40EE00128F7D0C2
:100B50006868226A00F48031914204D1616A00F42D
:100B60007010884201D00120EAE70020E8E7000089
:100B70000010024000004242800442421000002067
:100B80000070004010B5401EB0F1807F01D30120FD
:100B900010BD4FF0E02460610F21601700F03DFFB1
:100BA0000020A06107202061002010BD70B590F8E2
:100BB0003C20012A26D0012480F83C40022280F803
:100BC0003D2003685A689D6822F070060A68324327
:100BD0005A600D4B02689A4208D0B2F1804F05D09E
:100BE0000A4B9A4202D00A4B9A4204D1496825F036
:100BF00080031943916080F83D40002180F83C104B
:100C0000084670BD022070BD002C01400004004069
:100C10000008004010B5040003D094F83D0010B166
:100C200007E0012010BD002084F83C00204600F0C1
:100C30001FF8022084F83D00211D206800F06CFDA3
:100C4000012084F8460084F83E0084F83F0084F8D0
:100C5000400084F8410084F8420084F8430084F89E
:100C6000440084F8450084F83D00002010BD0000D9
:100C700008B50068B0F1804F08D10548C16941F05E
:100C80000101C161C06900F00100009008BD0000D1
:100C90000010024090F83D10012901D0012070475A
:100CA000022180F83D1000680B49884208D0B0F15D
:100CB000804F05D00949884202D00949884204D1B1
:100CC000816801F00701062903D0016841F00101A4
:100CD0000160002070470000002C0140000400402B
:100CE0000008004001680A6A41F211131A4207D154
:100CF0000A6A9B101A4203D10A6822F001020A60B4
:100D0000012180F83D100020704770B5044690F82E
:100D10003C000025012817D0012684F83C60022001
:100D200084F83D002068826822F0770222F47F4236
:100D300082600868502838D00DDC20284FD005DCB0
:100D400090B3102811D14AE0022070BD302846D05F
:100D500040280AD13BE060282FD070280DD0B0F594
:100D6000805F03D0B0F5005F12D0012584F83D60AC
:100D7000002084F83C00284670BDCB68D1E90121F1
:100D8000206800F0FFFC2068816841F0770109E0ED
:100D9000CB68D1E90121206800F0F4FC206881686B
:100DA00041F480418160E1E719E0CA684968206840
:100DB00000F0FAFC5021206806E0CA684968206803
:100DC00000F003FD6021206800F0E6FCCEE7CA6871
:100DD0004968206800F0E8FC40212068F4E72268B8
:100DE00001461046F0E7704770470000F8B501680B
:100DF00004460868CA684B6910F00F0F4FF00005F1
:100E000059D003F0010602F49077374365D0C1074B
:100E100005D0D10503D5616C41F001016164410742
:100E200005D5D90703D0616C41F0020161648107E7
:100E300005D5D90703D0616C41F004016164010755
:100E400007D502F02001314303D0616C41F0080165
:100E50006164616C00293AD0800604D5900602D501
:100E6000204600F0F3FC20684069616CC0F38010FC
:100E7000090700D460B3204600F0C1FC2068406937
:100E8000400621D52068143050E8001F21F04001B1
:100E900040E80012002AF5D1E06BA8B16D4941632A
:100EA000E06BFFF71BFA002811D0E06B416B01B03B
:100EB000BDE8F040084783060FD593060DD52046C0
:100EC000BDE8F84000F0C2BC2046FFF78DFFF8BD3A
:100ED0002046FFF789FF6564F8BD266B2023012EAD
:100EE0007CD1C6067AD5D60678D5086848680090C1
:100EF00048694FF00206400640D5E16B086840683B
:100F00000004000CE8D0A28D8242E5D9E085886912
:100F100020282DD020680C3050E8001F21F480716B
:100F200040E80012002AF5D12068143050E8001F74
:100F300021F0010140E80012002AF5D120681430A8
:100F400050E8001F21F0400140E80012002AF5D1CE
:100F500084F84230256320680C3050E8001F21F0EF
:100F6000100140E80012002AF5D1E06BFFF793F979
:100F70006663A08DE18D401A81B22AE0A08DE18DDB
:100F8000401A81B2E08D0028A6D00029A4D02268A2
:100F90000C3252E8000F20F4907042E80007002F56
:100FA000F5D12068143050E8002F22F0010240E80B
:100FB0000027002FF5D184F84230256320680C30DB
:100FC00050E8002F22F0100240E80023002BF5D15A
:100FD00066632046FFF707FFF8BDFFE705062BD540
:100FE000150629D594F841002128F5D1A068B0F55F
:100FF000805F01D12069B0B1206A411C2162216863
:1010000000784860E08C401E0004000CE084E3D1CE
:101010002068C16821F08001C1602068C16841F08A
:101020004001C160D8E7206A0088C0F3080048602A
:10103000206A801C2062E5E74006CDD55006CBD55E
:10104000CA68204622F04002CA6084F8413000F0AD
:1010500021F9C1E7EF17000870B5040004D094F837
:101060004100002510B106E0012070BD84F8405019
:10107000204600F023F8242084F841002068C1684D
:1010800021F40051C160204600F042FC2068016953
:1010900021F4904101612068416921F02A014161F8
:1010A0002068C16841F40051C1606564202084F863
:1010B000410084F842006563002070BD70B586B0C1
:1010C0000024009401940294039403682E482D4E4A
:1010D000022103220515B34226D1836943F48043DC
:1010E0008361836903F480430493836943F00403B9
:1010F00083618069254E00F0040004900802CDE968
:101100000001039269463046FFF734F9CDE90054F7
:10111000694630460294FFF72DF90022114625203A
:10112000FFF792FA252028E0194EB34227D1C36970
:1011300043F48023C361C36903F480230493836968
:1011400043F0080383618069CDE9005100F0080095
:10115000CDE903200F4D69462846FFF70BF9E81447
:10116000CDE90004694628460294FFF703F90022FE
:1011700011462720FFF768FA2720FFF757FA06B035
:1011800070BD00000038014000100240000801401E
:1011900000480040000C014090F84230202B01D064
:1011A0000220704721B11AB10023036300F00CBC88
:1011B000012070472DE9F0410546006830490124BF
:1011C000884234D12F490E468F783078767802469F
:1011D000401CC3B22C48D12F00D126B1012E07D01C
:1011E000022E0DD01CE0D12686540B704C7017E0F7
:1011F00087540B70D22F01D0642B11D302224A7076
:1012000003780022D12B05D10B78184410F8010C7B
:10121000D22816D04A700A7064211B48FEF7D4FF0A
:10122000184919480122891C8830FFF7B5FF174972
:101230002868884222D1144864300178EB2903D011
:1012400013E04A700A70EBE7417890290DD190F8CD
:101250002210AA2909D190F82300552805D10A485F
:10126000643000F091F90A480470BDE8F041064985
:101270002422643101F16C00FFF78EBFBDE8F081DC
:1012800000380140000000206000002000480040BD
:10129000140000207047FEE72DE9F04F85B00024D0
:1012A0002E480094019402940394816941F0100146
:1012B0008161816901F010010491816941F020018F
:1012C0008161816901F020010491816941F004018B
:1012D0008161816901F004010491816941F0080193
:1012E00081618069DFF8789000F008004FF40055C4
:1012F0000490002229464846FFF734F9DFF864A03D
:1013000049F6FF17002239465046FFF72BF9DFF860
:1013100058B04FF20B08002241465846FFF722F919
:101320000095022601250396CDE9015469464846F9
:10133000FFF720F800970396CDE90154694650461F
:10134000FFF718F8CDF800800396CDE901546946FF
:101350005846FFF70FF805B0BDE8F08F00100240C7
:101360000010014000080140000C014010B586B09B
:1013700000241648009401940294039404944FF0BE
:101380008041059401604721C0E901144FF6FF71C7
:10139000C0E903148461FFF73DFC08B1FEF779FF53
:1013A0004FF48050009069460848FFF7AEFC08B142
:1013B000FEF76FFF049404A904480594FFF7F6FBB9
:1013C000002801D0FEF765FF06B010BD1800002010
:1013D0000C4810B50A4901604FF4E1314160002129
:1013E00081600C22C160C0E904128161C161FFF714
:1013F00033FE002803D0BDE81040FEF74ABF10BD01
:1014000000380140E80000200C4810B50A4901608E
:101410004FF4E1314160002181600C22C160C0E9DC
:1014200004128161C161FFF717FE002803D0BDE8F7
:101430001040FEF72EBF10BD0048004030010020D4
:10144000FEE7FEE72DE9F04391B00D2600224FF6AE
:10145000FF736D460DF1200430F81270A04603EAC8
:10146000471725F8127031F8127024F81270521CC8
:10147000D2B2102AF0D3424C002201212046FFF7BD
:1014800071F80027A146002202214846FFF76AF8BA
:101490005FF0000435F8140000F00101400825F861
:1014A0001400641CE0B200F077FBE4B2102CF1D31E
:1014B0000A2000F0F5FB012202214846FFF752F80E
:1014C0000A2000F0EDFB7F1CFFB2B742DBD3002205
:1014D00002214C464846FFF745F80A2000F0E0FBA1
:1014E000012211462046FFF73DF80A2000F0D8FB04
:1014F000002201212046FFF735F80A2000F0D0FB3A
:1015000047460025A046002202214046FFF72AF860
:101510005FF0000437F8140000F00101400827F8DC
:101520001400641CE0B200F037FBE4B2102CF1D3DD
:101530000A2000F0B5FB012202214046FFF712F815
:101540000A2000F0ADFB6D1CEDB2B542DBD30022EA
:10155000022144464046FFF705F80A2000F0A0FBB0
:10156000012211462046FEF7FDFF0A2000F098FBFD
:10157000002201212046FEF7F5FF11B0BDE8F083FF
:1015800000080140704700002DE9F043A1B0861C1F
:10159000174F00246FF007086FF001096D46305DAA
:1015A00000F07EFC394600F08FFC414600F08AFDD9
:1015B00045F834003019007C00F072FC494600F018
:1015C00081FD05EBC401641C4860102CE7DB00249E
:1015D00005EBC40055F834204168601CC0B200F02F
:1015E0002DF8641C102CF3DB21B0BDE8F083000063
:1015F0000000B4437047000010B50A46040001D053
:10160000102C01D9002010BD4FF07A50824202DB2D
:101610000848824200DD02460221104600F052FDD9
:1016200000F01EFC044901EB440121F8020C0120EA
:1016300010BD00000000FE417801002070B5154685
:101640000446FFF7D9FF29462046BDE8704000F068
:1016500001B8000010B50A46040001D0102C01D9D1
:10166000002010BD12F1FF4F01D3002203E00E480D
:10167000824200DB02460821104600F023FD0B49A0
:1016800000F02CFB00F0ECFB80B2410602D540F4E8
:10169000807001E020F48070054901EB440121F8DD
:1016A000020C012010BD0000CD4CB3430000B44338
:1016B00098010020FEF762BF30B58FB02821684640
:1016C000FEF782FD14210AA8FEF77EFD0121080421
:1016D000CDE900100024029402250491CDE90750C1
:1016E0004FF4E01009906846FFF7BCF808B172B6F5
:1016F000FEE70F20CDE90A054FF48060CDE90C40EC
:1017000002210AA80E94FEF7D1FF002801D072B67C
:10171000FEE70FB030BD7047F0B50268164B174CAE
:10172000174D4FF08047984205D0B84203D0A042F1
:1017300001D0A84203D122F070064A683243984291
:1017400005D0B84203D0A04201D0A84203D122F470
:101750004074CA6822434C6922F08002224302602E
:101760008A68C2620A688262984201D1096901638B
:1017700001214161F0BD0000002C01400004004047
:101780000008004010B5846842EA032224F47F4434
:101790000A432243826010BD826822F070020A432D
:1017A00042F007018160704710B5036A046A24F0B3
:1017B00001040462846924F0F00444EA021423F072
:1017C0000A020A438461026210BD10B5036A046A0A
:1017D00024F010040462846923F0A00324F470440C
:1017E00044EA023243EA01118261016210BD10B580
:1017F000406A0021C185C184FFF7F6FA10BD016877
:101800000C3151E8002F22F4907241E80023002BA4
:10181000F5D10168143151E8002F22F0010241E8AE
:101820000023002BF5D1016B012909D101680C318E
:1018300051E8002F22F0100241E80023002BF5D1DF
:10184000202180F8421000210163704708B590F80C
:101850004210222901D0022008BD82684FF4805333
:101860009A4201D1016921B1816A9A421BD04AB1E1
:101870000AE00268816A5268C2F308020A80816A3B
:10188000891C08E0026972B10268526802F07F02A6
:101890000A70816A491C8162C18D491E0904090CC4
:1018A000C18503D01BE002685268F1E70168CA688D
:1018B00022F02002CA600168CA6822F48072CA60FD
:1018C00001684A6922F001024A61202180F8421031
:1018D00000214163026B012A03D0FFF76BFC00205B
:1018E00008BD016301680C3151E8002F22F010029D
:1018F00041E80023002BF5D101680A68D20602D521
:101900000A6849680091818DFFF76DFAE7E70000EA
:1019100070B5044600680169E26821F44051114342
:1019200001612169A0680843616908432168CA68A8
:1019300041F20C639A430243CA6020684169A2697C
:1019400021F44071114341611E492068884202D14F
:10195000FEF752FF01E0FEF73FFF00EBC00101EB95
:101960000012606864218000B2FBF0F3B3FBF1F376
:101970006FF018067343B2FBF0F5B2FBF0F605EB1F
:101980008305322303EB0515B5FBF1F5B6FBF1F644
:1019900005F0F00505EB0615B2FBF0F6B2FBF0F032
:1019A000B0FBF1F06FF01802504306EB800003EB40
:1019B0000010B0FBF1F0216800F00F0028448860AF
:1019C00070BD00000038014081628285C28500211F
:1019D0004164222180F84210016921B10168CA687E
:1019E00042F48072CA6001684A6942F001024A61A9
:1019F0000068C16841F02001C1600020704700000C
:101A00000148FFF7F3B90000E80000200148FFF7A4
:101A1000EDB9000030010020FEE70907090E00289B
:101A200004DB00F1E02080F80014704700F00F00A4
:101A300000F1E02080F8141D704770B505460024C1
:101A40004FF47A7603E0304600F02AF9641CAC4289
:101A5000F9D370BDFEF79AFDFFF72EFEFFF71CFCD1
:101A6000FFF784FCFFF7B4FCFFF7CEFC4FF47A706D
:101A7000FFF7E3FF394A3A490120FFF7DFFD394C10
:101A80004FF07A5122460220FFF7D8FD364A3749F7
:101A90000320FFF7D3FD364A36490420FFF7CEFD79
:101AA00022464FF07C510520FFF7C8FD4FF08444DB
:101AB000002221460620FFF7C1FD00222146072013
:101AC000FFF7BCFD002221460820FFF7B7FD0022EA
:101AD00021460920FFF7B2FD002221460A20FFF728
:101AE000ADFD002221460B20FFF7A8FD0022214674
:101AF0000C20FFF7A3FD002221460D20FFF79EFDDD
:101B0000002221460E20FFF799FD002221460F20DA
:101B1000FFF794FD002221461020FFF78FFD1649A4
:101B20001648FFF78FFC012215491648FFF734FBD2
:101B3000242215491548FFF72FFB4FF40051144894
:101B4000FEF708FD134C002520780028FCD00A4938
:101B50000A48FFF777FC2570F6E700003333B33F00
:101B600000002040666686400000B4410000A040AE
:101B7000333333400000E04098010020780100201A
:101B800002000020E8000020C400002030010020F6
:101B9000001001401400002030B43F4B012820D039
:101BA000022824D0032826D004282AD005282ED0A5
:101BB000062832D0072836D008283BD09C140928A4
:101BC00041D0364B0A2842D00B2846D00C280ED0E4
:101BD0000D2838D00E284AD00F284FD089B30122C3
:101BE00054E009B1012200E00022042150E049B391
:101BF000012208214CE009B1012200E0002210215D
:101C000046E009B1012200E00022202140E009B1B4
:101C1000012200E0002240213AE009B1012200E067
:101C20000022802134E009B1012200E000224FF4BB
:101C300080712DE009B1012200E000224FF4006123
:101C400026E022E00FE081B10122214620E009B127
:101C5000012200E0002201211AE009B1012200E086
:101C60000022022114E00022C3E70022EDE709B1BF
:101C7000012200E000224FF4005109E009B10122E5
:101C800000E000224FF4804102E000224FF40041C6
:101C900030BC1846FEF766BC00080140000C01404D
:101CA00070B54FF6FA75094E281A84B2306844624E
:101CB0003046FEF7EFFF306801E0416A8CB2AC427B
:101CC000FBD3BDE870400148FFF70CB818000020B6
:101CD000014800F0C5B900BF0000C07F4FF47F0C81
:101CE0001CEAD0121EBF1CEAD11392EA0C0F93EA31
:101CF0000C0F00F0858090EA010F48BF42F480721B
:101D000040F4000C41F400002CF07F4120F07F40B3
:101D100000B58142A2EB03020FF2081CACEB504E5F
:101D2000C0F100009EF800E04FEA4E0E00FB0EFCF2
:101D300038BF49004FEA2C1C02F5FA020CFB0EF3E7
:101D40004FEACE1E4FEA112C4FEAC1210EEB635E23
:101D500042EB22420EFB0CFC4FEA1C5300FB03112A
:101D60004FEA112C4FEA01310EFB0CFC4FEADC4C20
:101D700000FB0C11C14228BF09184CEB03335DF87E
:101D800004EB10EB410143EBC250B2F57C0F38BFBE
:101D9000704729D512F0F00F1CBF00F1C04000F0D1
:101DA00000407047008182838485868788898B8C78
:101DB0008D8E8F919293959697999A9C9D9FA0A2B4
:101DC000A3A5A7A8AAACAEB0B2B3B5B7B9BCBEC004
:101DD000C2C5C7C9CCCED1D4D7D9DCDFE2E6E9ECA5
:101DE000F0F3F7FAFE0000004FEA400C0CF1807CA3
:101DF000BCF17E4F28BF7047B0F1C04000F02BB956
:101E000090EA010F0CEAD11348BF42F48072624598
:101E100038BF634507D213F47F0F16D080EA010064
:101E200000F00040704710B500F0CFF8097EFC3E8E
:101E300000F005B880EA010000F00040704780EA39
:101E4000010000F0004000F006B912F47F0F04BF5B
:101E50000248704780EA010000F0FDB80000C07F32
:101E6000C10DD1F19E0206DB4FEA002343F000438F
:101E700023FA02F07047004207D54FEA4001B1F162
:101E8000FE4F02D24FF00000704710B500F09DF8F1
:101E900049922480002070476FEA200070470000BC
:101EA000B0FA80F310FA03F2C3F19D030AD0D9050A
:101EB00001EB1220530638BF704700F1010008BF44
:101EC00020F00100704700004FF47F0C1CEAD01294
:101ED0001EBF1CEAD11392EA0C0F93EA0C0F00F01C
:101EE000478090EA010F48BF42F480724FF0004CE7
:101EF0004CEA00204CEA012102EB0302A0FB011393
:101F0000A2F50002002918BF43F001035B0028BFBF
:101F10004FEA330342EB22425FEA132C4CEBC250F0
:101F20002EBFBCEB436FB2F57C0F70474FEA036CDA
:101F3000BCF1004F08BF20F00100B2F57C0F38BFA4
:101F400070470BD582F0FF0212F5803FC8BF704783
:101F500000F1C040D8BF00F00040704700F5000C11
:101F60005FEA4C0C48BF7047B0F1C04000F073B856
:101F700090EA010F0CEAD11348BF42F48072624527
:101F800038BF634504D280EA010000F0004070478A
:101F900010B500F01AF800BF8900013E00F007B844
:101FA00000F009B85FEA410C5FEA1C6C08D080EAD7
:101FB000010000F050B85FEA400C5FEA1C6CF6D1FB
:101FC0004FF00040A0F5800070470EF1020E2EF099
:101FD000030E5EF8044B244204D44FEA4102B2F1EE
:101FE0007F4F11D84FEA4003B3F17F4F0CD80ED189
:101FF0004FEAD07CB2F17F4F0CEB4C0C0CF1020C91
:1020000008BF4CEBD17C04E04FF0080C01E04FEA34
:10201000D17C0CEB4C0324FA03F404F00704B4F174
:10202000040C06D20EEB840CBDE810404CF0010C01
:102030006047DFE80CF0070802024FF00040A0F50F
:10204000800010BD0846420018BFD2F1807288BFE0
:1020500000F0004010BDFF2141EAD050C00570479C
:102060000CF00F03092B08BF082000F051800A2B49
:102070000BD0082B18BF704708BF1CF0400F0AD0C8
:102080004FF000004FF0000170471CF0400F18BFE8
:102090004FF0004070471CF0100F08D020F0704344
:1020A00000F07F4242EAD3014FEA4370704700F0EC
:1020B000604021F07F4242EA000201F07F4040EAA6
:1020C000727070474FF0FF0212EAD0521CBF92F0BC
:1020D000FF038B42C2BFD14200EBC1507047002AC0
:1020E0000AD0002B0BD0002900F00040A4BF40F024
:1020F000FE4040F40000704700F00040704743028B
:102100004FF00B0C18BF4CF0806C7FF4E1AD7047C2
:102110001CF4801F11D01CF4E02F03D06FEACC31E7
:10212000490070474FF04050EFF3008222F07042B8
:1021300042EA000282F3008870474FF000007047C7
:10214000010202030405060708090A0B0C0D0E0F15
:102150001010000000000000000001020304060748
:102160000809000000000102030400008C2100089F
:10217000000000201800000028010008A421000829
:1021800018000020000800004401000800000000C2
:102190000100000010000000000000000024F40016
:0421A000000000003B
:04000005080000ED02
:00000001FF
